:020000040000FA
:1000000028040010410C0000530C0000490C0000B3
:1000100000000000000000000000000000000000E0
:100020000000000000000000000000004B0C000079
:1000300000000000000000004D0C0000350F000023
:1000400065010000D501000043020000B10200007C
:100050001F0300008D030000FB0300006904000083
:10006000D70400001D050000510C0000510C0000D9
:10007000510C0000510C0000530C0000530C000008
:10008000530C0000530C0000530C0000530C0000F4
:10009000530C0000210A0000530C0000530C000018
:1000A000530C0000530C0000530C0000530C0000D4
:1000B000510C0000510C0000530C0000510C0000CA
:1000C00000F002F800F03EF80CA030C80838241800
:1000D0002D18A246671EAB4654465D46AC4201D180
:1000E00000F030F87E460F3E0FCCB6460126334274
:1000F00000D0FB1AA246AB46334318473C1300001E
:100100005C130000103A02D378C878C1FAD85207BD
:1001100001D330C830C101D504680C6070470000BD
:100120000023002400250026103A01D378C1FBD813
:10013000520700D330C100D50B6070471FB51FBDFB
:1001400010B510BD01F036F91146FFF7F7FF00F0CA
:1001500012FF01F04EF903B4FFF7F2FF03BC01F008
:1001600055F90000F9480068401CF8490860F84853
:10017000406AC007C00F00282BD0F5480068C007B0
:10018000C00F002805D0F3480068401CF149086002
:100190001FE0EF48C069C007C00F002808D0EE4834
:1001A0000068401CEC4908600120E949C8610DE085
:1001B000E748006AC007C00F002807D0E74800687A
:1001C000401CE64908600120E14908620120E0493D
:1001D00048627047E2480068401CE1490860DC481A
:1001E000406A0221084000282AD0D9480068084007
:1001F000002805D0DB480068401CDA4908601FE091
:10020000D348C06902210840002808D0D6480068B9
:10021000401CD54908600220CD49C8610DE0CC489A
:10022000006A02210840002807D0D0480068401C1E
:10023000CE4908600220C64908620220C4494862CB
:100240007047CB480068401CC9490860C048406AF4
:100250000421084000282AD0BD4800680840002832
:1002600005D0C4480068401CC24908601FE0B84877
:10027000C06904210840002808D0BF480068401C1D
:10028000BD4908600420B249C8610DE0B048006A69
:1002900004210840002807D0B8480068401CB7492E
:1002A00008600420AA4908620420A94948627047EE
:1002B000B3480068401CB2490860A548406A08215C
:1002C000084000282AD0A24800680840002805D02D
:1002D000AC480068401CAB4908601FE09C48C069FE
:1002E00008210840002808D0A7480068401CA649FB
:1002F000086008209649C8610DE09548006A082109
:100300000840002807D0A1480068401C9F490860A9
:1003100008208F49086208208D49486270479C4830
:100320000068401C9A4908608948406A10210840CA
:1003300000282AD0864800680840002805D0954843
:100340000068401C934908601FE08148C069102183
:100350000840002808D090480068401C8E4908607A
:1003600010207B49C8610DE07948006A10210840DF
:10037000002807D089480068401C88490860102080
:1003800073490862102072494862704784480068C7
:10039000401C834908606E48406A202108400028BC
:1003A0002AD06B4800680840002805D07D480068C6
:1003B000401C7C4908601FE06548C0692021084056
:1003C000002808D078480068401C77490860202041
:1003D0005F49C8610DE05E48006A2021084000289E
:1003E00007D072480068401C7049086020205849B6
:1003F000086220205649486270476D480068401CDA
:100400006B4908605248406A4021084000282AD0C1
:100410004F4800680840002805D066480068401C26
:10042000644908601FE04A48C0694021084000282C
:1004300008D061480068401C5F490860402044497A
:10044000C8610DE04248006A40210840002807D0FA
:100450005A480068401C5949086040203C490862DD
:1004600040203B494862704755480068401C544949
:1004700008603748406A8021084000282AD0344864
:1004800000680840002805D04E480068401C4D49CF
:1004900008601FE02E48C06980210840002808D06D
:1004A00049480068401C4849086080202849C861C4
:1004B0000DE02748006A80210840002807D0434803
:1004C0000068401C41490860802021490862802062
:1004D0001F49486270473E480068401C3C4908601C
:1004E0003C480068C007C00F002816D03948006893
:1004F00010210840002805D037480068401C3649C4
:10050000086004E035480068401C34490860314800
:100510000068012108432F4908607047304800688F
:10052000401C2F4908602F480068C007C00F0028F2
:1005300067D02C48006810210840002856D02A486F
:100540000068401C2849086055E0000000000010C9
:1005500000C00440280000102C00001030000010E3
:100560000400001034000010380000103C0000109F
:100570000800001040000010440000104800001067
:100580000C0000104C00001050000010540000102F
:1005900010000010580000105C00001060000010F7
:1005A0001400001064000010680000106C000010BF
:1005B0001800001070000010740000107800001087
:1005C0001C0000107C00001080000010840000104F
:1005D0002000001000C00540880000108C000010B2
:1005E000240000100000064090000010FE48006843
:1005F000401CFD490860FD48006801210843FB4993
:1006000008607047FA48006840210843F8490860CC
:10061000084600683121C9040843F549086070475D
:10062000FFB581B005460E4614460A9F2B0000F028
:10063000F4FE080514233241505F6E7D002E05D074
:1006400020461830EA49C031886302E0E848C030EB
:100650008463002000F0D2F969E0002E05D0204626
:100660001830E349F831486002E0E148F83044606E
:10067000012000F0C3F95AE0002E05D020461830C2
:10068000DB49F831886002E0D948F8308460022004
:1006900000F0B4F94BE0002E05D020461830D449C4
:1006A000F831C86002E0D248F830C460032000F09E
:1006B000A5F93CE0002E05D020461830CC49F83191
:1006C000086102E0CA48F8300461042000F096F99D
:1006D0002DE0002E05D020461830C549F83148617C
:1006E00002E0C348F8304461052000F087F91EE0BD
:1006F000002E05D020461830BD49F831886102E04F
:10070000BB48F8308461062000F078F90FE0002E35
:1007100005D020461830B649F831C86102E0B44827
:10072000F830C461072000F069F900E000BF00BFA5
:100730000498002818D1AF4800680121A9408843D7
:10074000AC490860002F07D1084600690121A94083
:100750000843A849086126E0A64840680121A9404D
:100760000843A44948601EE0A24800680121A9404E
:100770000843A0490860084640680121A940084391
:100780009C494860002F07D1084600690121A94013
:1007900088439849086106E0964800690121A9400C
:1007A00008439449086105B0F0BD924A12680123DC
:1007B00083401A40002A11D1002907D18D4A52697D
:1007C000012383401A438B4B5A610EE0894A926899
:1007D000012383401A43874B9A6006E0854A92685A
:1007E000012383401A43834B9A607047814A126801
:1007F000012383401A40002A11D1002907D17D4AE4
:100800009269012383401A437A4B9A610EE0794A38
:10081000D268012383401A43764BDA6006E0754ABA
:10082000D268012383401A43724BDA607047014655
:100830007048406A01228A401040002801D00120FF
:1008400070470020FCE76B49096801228240114093
:10085000002903D101218140664A51627047FFB5EA
:1008600081B00C4616461F460A9D0198002802D00A
:1008700001285AD12CE0002F06D15F4800680421DE
:1008800088435D49086005E05B480068042108432F
:100890005949086058480068710008435649086083
:1008A00028680862544869684162534940312068A9
:1008B00008605148616841640068012108434E495D
:1008C0000860082000F0A1F8082000F097F82DE05B
:1008D000002F06D145480068042188434349086039
:1008E00005E04248006804210843404908603F4849
:1008F0000068710008433D490860286808623B4869
:100900006968416239494031206808603748616848
:10091000416400680121084334490860092000F05F
:1009200074F8092000F06AF800E000BF00BF05B0CD
:10093000F0BD10B50246002020290DD205231B076B
:10094000212424021B1994001B5901248C402340AC
:10095000002B0AD0012008E0FF2906D105231B0740
:10096000212424021B199400185910BD30B5002A07
:1009700009D001238B400524240711256D02641939
:100980008500635108E001238B4005242407452599
:10099000ED0164198500635130BD30B5002A11D0D6
:1009A00005231B07012464031B1984001B59012420
:1009B0008C4023430524240701256D036419850019
:1009C000635110E005231B07012464031B198400F5
:1009D0001B5901248C40A3430524240701256D03E2
:1009E00064198500635130BD94000010000006407A
:1009F0008080044000C0044000C00540C206D20E02
:100A000001219140044A11607047C206D20E0121B3
:100A10009140024A1160704700E100E080E200E08E
:100A2000F0B500BF7D487E4CA468E1B2491049078B
:100A3000490F032937D17A4C6469E2B29E241440ED
:100A4000002C05D0774C2260754C2468E3B2F0BDD1
:100A5000D407E40F002C69D08624245A641CA5B264
:100A6000862425528924245C012C18D10025882451
:100A700025546B4C24688A252D5C8A26365C761CAE
:100A80008A273E54654E74558A24245C852C4DDBA0
:100A900000258A242554AA258924255446E0604C43
:100AA0002468E3B242E0022926D18624245A641C39
:100AB000A5B2862425528924245C012C18D1002556
:100AC00088242554564C24688A252D5C8A26365C59
:100AD000761C8A273E54514E74558A24245C852CFA
:100AE00024DB00258A242554AA25892425541DE0C9
:100AF0004B4C2468E3B219E0062907D1494C24681D
:100B0000FF2501352C43474D2C600FE001290DD105
:100B1000434C6469E2B220241440002C03D0012429
:100B2000414D2C7002E000243F4D2C7000BF8EE739
:100B3000F8B5044601203C49087000203B49086094
:100B40001520012181403A4A116000BF3948806870
:100B5000C008C00037498860084680680121084302
:100B6000344988600846C068C008C000C8600846AC
:100B7000C068012108432F49C8602F48006801213F
:100B8000090308432C490860012088618320244917
:100B9000C8602948866931462848006800F05AFB39
:100BA00007092146384600F055FB0546280A1C492E
:100BB0004860E8B208600320C860072088600846E3
:100BC000466900BF16484069602108406028F9D195
:100BD00001E01348066812484069C007C00F0028AA
:100BE000F7D105200E494860F8BD00BF0C4949699E
:100BF000602211406029F9D1094908607047014617
:100C000007484069C007C00F002804D004480068A6
:100C10000870012070470020FCE70000B4000010BD
:100C200000800040980000109C000010A000001000
:100C300080E100E04040044080800440A4000010B7
:100C40000748804707480047FEE7FEE7FEE7FEE764
:100C5000FEE7FEE704480549034A054B70470000DC
:100C6000E50D0000C100000028020010280400105B
:100C70002802001010B500249B48406AC005000FF0
:100C8000030000F0CAFB10090B0D0F111315171903
:100C90001B1D1F212325272900241DE0934C1BE049
:100CA000934C19E0934C17E0934C15E0934C13E0F0
:100CB000934C11E0934C0FE0934C0DE0934C0BE000
:100CC000934C09E0934C07E0934C05E0934C03E010
:100CD000934C01E0934C00BF00BF8348406AC006BC
:100CE000800E811C204600F0B5FA04467E48403054
:100CF000006B8007800F002806D0012808D002284A
:100D000023D0032863D123E08748884908605EE048
:100D10007548403000688007800F002806D0012801
:100D200008D002280AD003280DD108E07E487F4968
:100D3000086008E07C487D49086004E000BF0020AE
:100D40007A49086000BF00BF41E0784804603EE097
:100D50006548403000688007800F002806D00128D1
:100D600019D002282CD003282FD12AE05E488068B1
:100D7000FF2181310840002803D06B486B4908608F
:100D800008E059488068C006C00E401C66494843C8
:100D90006649086019E054488068FF2181310840A5
:100DA000002803D060486149086008E04E48806828
:100DB000C006C00E401C5C4948435C49086004E022
:100DC00000BF00205949086000BF00BF00BF00BF3E
:100DD00045484030816B5548006800F03BFA534964
:100DE000086010BD08B55248806B202188435049E7
:100DF000886300203C490862009003E000BF00982F
:100E0000401C00900098C828F8D301203649403192
:100E100008604860002048600120486000BF3248F8
:100E200040304068C007C00F0028F8D023202E496A
:100E300088603F48806B802188433D49886300BFBC
:100E40002948C068C007C00F0028F9D003202649F0
:100E50004031086301204863002048630120486353
:100E600000BF21484030406BC007C00F0028F8D0B9
:100E700001201D49403188632D48806B0915884346
:100E80002B4988630846806B891588432849886305
:100E90000120154940318860C8600020C8600120E9
:100EA000C86000BF10484030C068C007C00F0028AD
:100EB000F8D023200C49086100BF0B484069C007E7
:100EC000C00F0028F9D000200749C0310860086031
:100ED000012088600448803000680121090408432B
:100EE00001498031086008BD0080044020A107004E
:100EF00000350C00E0C81000C05C1500006A180046
:100F000040771B0080841E00C0912100009F2400B8
:100F100040AC2700E032290020402C00604D2F001B
:100F200000D4300040E13300001BB700A4000010E3
:100F3000008204403D480068401C3C4908607047FE
:100F40003B480069400840003949086100203749A2
:100F5000086037498861084600690121084334491F
:100F600008617047014631480068884201D201207B
:100F700070470020FCE7FFF735FFE1204002FFF754
:100F8000D7FD2C4C2C48844200D90EE02002000AE8
:100F9000401E274948610121881E00F00FF80020FB
:100FA000234988610720086100BF01220721002032
:100FB000FFF7F3FC00BF00F0CFF8FCE710B5002806
:100FC00019DA1E4A03071B0F083B9B089B00D258E7
:100FD0008307DC0EFF23A3409A43CB071B0E840735
:100FE000E40EA3401A43154B0407240F083CA40841
:100FF000A4001A5118E0124A03231B02D2188308D6
:101000009B00D2588307DC0EFF23A3409A43CB07F3
:101010001B0E8407E40EA3401A43094B0324240249
:101020001B198408A4001A5110BD0000A80000106C
:1010300000E000E088130000FFFFFF001CED00E06F
:1010400000E100E030B502460B46002015E01578BF
:10105000521C2C02604000210DE00124E4030440F6
:10106000002C04D04400724D6C40A0B201E0440456
:10107000200C4C1CA1B20829EFDB1C465D1EEBB214
:10108000002CE4D130BD70B504462146694800F01B
:10109000E1F885B270BD10B50446FFF751FF00BFFF
:1010A0002046FFF7ACFD002801D0012010BDFF2035
:1010B0002D30FFF757FF0028F2D100BFF6E710B53B
:1010C0000446FFF73DFF00BF2046FFF798FD0028CC
:1010D00001D0012010BD0320FFF744FF0028F3D109
:1010E00000BFF7E7F8B50546002404E000205249A8
:1010F0000855601CC4B2872CF8DB6426002424E069
:10110000432D07D1FFF71CFF00BF4C48FFF72AFF14
:101110000028FAD12846FFF768FD6846FFF7BBFFB5
:10112000002812D000BF852C01DB2046F8BD6846A0
:1011300002782046611CCCB23F490A546846FFF74A
:10114000BEFF0028EFD12046F0E73046711ECEB238
:101150000028D5D100BFE9E710B5374C4320384906
:10116000087001203749087000203749087000BF17
:1011700034480078C0433549087031480078FFF79B
:10118000B1FF852827D160782E49097888421ED181
:10119000A0782E490978884219D101202A4908707F
:1011A000C8202B49087082212348C01CFFF74AFF42
:1011B000002808D123480078401C224908700620E6
:1011C0001F4908701FE015201D4908701BE01520FD
:1011D0001B49087017E01C48007801280BD04320F9
:1011E0001749087001201749087019480078401EF7
:1011F0001749087007E01520114908701448007855
:10120000401E134908702078042806D0207818283A
:1012100003D00F4800780028AAD10620FFF7E5FC8C
:101220002078042801D1012010BD0020FCE7000037
:101230002110000040420F00400100108813000000
:10124000AE000010AC000010AF000010AD000010A8
:10125000B0000010002203098B422CD3030A8B42FA
:1012600011D300239C464EE003460B433CD400229E
:1012700043088B4231D303098B421CD3030A8B42B0
:1012800001D394463FE0C3098B4201D3CB01C01A7E
:10129000524183098B4201D38B01C01A5241430949
:1012A0008B4201D34B01C01A524103098B4201D337
:1012B0000B01C01A5241C3088B4201D3CB00C01AA4
:1012C000524183088B4201D38B00C01A524143081C
:1012D0008B4201D34B00C01A5241411A00D2014641
:1012E0005241104670475DE0CA0F00D049420310DA
:1012F00000D34042534000229C4603098B422DD329
:10130000030A8B4212D3FC22890112BA030A8B42D0
:101310000CD3890192118B4208D3890192118B421F
:1013200004D389013AD0921100E08909C3098B42A4
:1013300001D3CB01C01A524183098B4201D38B01E7
:10134000C01A524143098B4201D34B01C01A52418A
:1013500003098B4201D30B01C01A5241C3088B42CF
:1013600001D3CB00C01A524183088B4201D38B00BA
:10137000C01A5241D9D243088B4201D34B00C01A44
:101380005241411A00D20146634652415B10104659
:1013900001D34042002B00D54942704763465B10A1
:1013A00000D3404201B50020C046C04602BD704790
:1013B00070477047754600F025F8AE46050069464F
:1013C0005346C008C000854618B020B5FFF742FC60
:1013D00060BC00274908B6460026C0C5C0C5C0C5C8
:1013E000C0C5C0C5C0C5C0C5C0C5403D49008D46CB
:1013F000704710B50446C046C0462046FEF7ABFE17
:1014000010BD000000487047C801001001491820B5
:10141000ABBEFEE726000200704730B47446641E7F
:101420002578641CAB4204D3635D5B00E31830BCD9
:1014300018471D46F8E7000058140000000000108F
:10144000B4000000040100000C150000B4000010FE
:1014500074030000200100000000000000000000F4
:10146000000000000000000000000000000000007C
:10147000000000000000000000000000000000006C
:10148000000000000000000000000000000000005C
:10149000000000000000000000000000000000004C
:1014A000000000000000000000000000000000003C
:1014B000000000000000000000000000000000002C
:1014C000000000000000000000000000000000001C
:1014D000000000000000000000000000000000000C
:1014E00000000000000000000000000000000000FC
:1014F000000000000100000000000000006CDC02A1
:0C1500000000000000000000FF000000E0
:04000005000000C136
:00000001FF
